 CLEAR STORAGE 1     ,008015,022026,030037,044,049,053053N000000N00001026                                         1
 CLEAR STORAGE 2     L068116,105106,110117B101/I9I#071029C029056B026/B001/0991,001/001117I0?                      2
 BOOTSTRAP           ,008015,022029,036040,047054,061068,072/061039              ,0010011040                      3
0                          LINCOLN'S BIRTHDAY PROGRAM                                                     PAGE    1
0 SEQ PG LIN  LABEL  OP    OPERANDS                                            SFX CT  LOCN  INSTRUCTION TYPE  CARD A-ADDR  B-ADDR

  101                JOB   LINCOLN'S BIRTHDAY PROGRAM
  102                CTL   3311
  103         ******************************************************************
  104         *  LINCOLN'S BIRTHDAY PROGRAM
  105         *      BY RONALD MAK
  106         *
  107         *  ORIGINAL VERSION: FEBRUARY 1969
  108         *  RESURRECTED:      FEBRUARY 2005
  109         ******************************************************************
  110                ORG   87                                                                 0087
  111         X1     DSA   0                  INDEX REGISTER 1                      3  0089  000                  4   000
  112                ORG   92                                                                 0092
  113         X2     DSA   0                  INDEX REGISTER 2                      3  0094  000                  5   000
  114                ORG   97                                                                 0097
  115         X3     DSA   0                  INDEX REGISTER 3                      3  0099  000                  6   000
  116         *
  117                ORG   333                                                                0333
  118         *
  119         * LINCOLN'S GETTYSBURG ADDRESS
  120         *
  121         GETTYS DCW   0                                                        1  0333                       7
  122                DCW   @FOUR SCORE AND SEVEN YEARS AGO@                        30  0363                       7
  123                DCW   @OUR FATHERS BROUGHT FORTH@                             25  0388                       8
  124                DCW   @ON THIS CONTINENT A NEW NATION,@                       31  0419                       9
  125                DCW   @CONCEIVED IN LIBERTY AND@                              24  0443                      10
  126                DCW   @DEDICATED TO THE PROPOSITION@                          28  0471                      11
  127                DCW   @THAT ALL MEN ARE CREATED EQUAL.@                       31  0502                      12
  128                DCW   @NOW WE ARE ENGAGED IN A GREAT@                         29  0531                      13
  129                DCW   @CIVIL WAR, TESTING WHETHER THAT@                       31  0562                      14
  130                DCW   @NATION OR ANY NATION SO@                               23  0585                      15
  131                DCW   @CONCEIVED AND SO DEDICATED@                            26  0611                      16
  132                DCW   @CAN LONG ENDURE. WE ARE MET ON@                        30  0641                      17
  133                DCW   @A GREAT BATTLEFIELD OF THAT WAR.@                      32  0673                      18
  134                DCW   @WE HAVE COME TO DEDICATE A@                            26  0699                      19
  135                DCW   @PORTION OF THAT FIELD AS A FINAL@                      32  0731                      20
  136                DCW   @RESTING PLACE FOR THOSE WHO HERE@                      32  0763                      21
  137                DCW   @GAVE THEIR LIVES THAT THAT NATION@                     33  0796                      22
  138                DCW   @MIGHT LIVE. IT IS ALTOGETHER@                          28  0824                      23
  139                DCW   @FITTING AND PROPER THAT WE SHOULD@                     33  0857                      24
  140                DCW   @DO THIS. BUT IN A LARGER SENSE,@                       31  0888                      25
  141                DCW   @WE CANNOT HALLOW THIS GROUND.@                         29  0917                      26
  142                DCW   @THE BRAVE MEN, LIVING AND@                             25  0942                      27
  143                DCW   @DEAD WHO STRUGGLED HERE HAVE@                          28  0970                      28
  144                DCW   @CONSECRATED IT FAR ABOVE OUR POOR@                     33  1003                      29
  145                DCW   @POWER TO ADD OR DETRACT. THE WORLD@                    34  1037                      30
  146                DCW   @WILL LITTLE NOTE NOR LONG REMEMBER@                    34  1071                      31
  147                DCW   @WHAT WE SAY HERE, BUT IT CAN NEVER@                    34  1105                      32
1                          LINCOLN'S BIRTHDAY PROGRAM                                                     PAGE    2
0 SEQ PG LIN  LABEL  OP    OPERANDS                                            SFX CT  LOCN  INSTRUCTION TYPE  CARD A-ADDR  B-ADDR

  148                DCW   @FORGET WHAT THEY DID HERE. IT IS@                      32  1137                      33
  149                DCW   @FOR US THE LIVING RATHER TO BE@                        30  1167                      34
  150                DCW   @DEDICATED HERE TO THE UNFINISHED@                      32  1199                      35
  151                DCW   @WORK WHICH THEY WHO FOUGHT HERE@                       31  1230                      36
  152                DCW   @HAVE THUS FAR SO NOBLY ADVANCED.@                      32  1262                      37
  153                DCW   @IT IS RATHER FOR US TO BE HERE@                        30  1292                      38
  154                DCW   @DEDICATED TO THE GREAT TASK@                           27  1319                      39
  155                DCW   @REMAINING BEFORE US, THAT FROM@                        30  1349                      40
  156                DCW   @THESE HONORED DEAD WE TAKE@                            26  1375                      41
  157                DCW   @INCREASED DEVOTION TO THAT CAUSE@                      32  1407                      42
  158                DCW   @FOR WHICH THEY GAVE THE LAST FULL@                     33  1440                      43
  159                DCW   @MEASURE OF DEVOTION, THAT WE HERE@                     33  1473                      44
  160                DCW   @HIGHLY RESOLVE THAT THESE DEAD@                        30  1503                      45
  161                DCW   @SHALL NOT HAVE DIED IN VAIN,@                          28  1531                      46
  162                DCW   @THAT THIS NATION UNDER GOD SHALL@                      32  1563                      47
  163                DCW   @HAVE A NEW BIRTH OF FREEDOM, AND@                      32  1595                      48
  164                DCW   @THAT GOVERNMENT OF THE PEOPLE,@                        30  1625                      49
  165                DCW   @BY THE PEOPLE, FOR THE PEOPLE@                         29  1654                      50
  166                DCW   @SHALL NOT PERISH FROM THIS EARTH.@                     33  1687                      51
  167         *
  168         * PROGRAM START.  SET INDEX REGISTER X1 TO POINT TO THE
  169         * FIRST PRINT MAP VALUE, AND INDEX REGISTER X2 TO POINT
  170         * TO THE FIRST CHARACTER OF THE GETTYSBURG ADDRESS.
  171         * INDEX REGISTER X3 WILL LATER POINT INTO THE PRINT AREA.
  172         *
  173         START  SBR   X1,MAP              POINT X1 TO PRINT MAP                7  1688  H 089 Y75           52   089    1875
  174                SBR   X2,GETTYS&1         POINT X2 TO GETTYSBURG ADDRESS       7  1695  H 094 334           52   094     334
  175         *
  176         * LOOP ONCE PER PRINT MAP VALUE.  FIRST CHECK IF IT'S THE
  177         * END OF THE PRINT MAP.  IF THE MAP VALUE IS NEGATIVE, THEN
  178         * PRINT OUT THE CURRENT LINE AND START A NEW ONE.
  179         *
  180         LOOP   MCW   0&X1,MAPVAL         MAPVAL = CURENT MAP VALUE            7  1702  M 0'0 Y73           52   000+1  1873
  181                SBR   X1,2&X1             POINT X1 TO THE NEXT VALUE           7  1709  H 089 0'2           52   089     002+1
  182                C     @00@,MAPVAL         IF MAPVAL = 0                        7  1716  C N21 Y73           52  2521    1873
  183                BE    DONE                    THEN DONE                        5  1723  B Y63 S             53  1863
  184         *
  185                BWZ   TEST,MAPVAL,2       IF MAPVAL < 0, THEN                  8  1728  V X55 Y73 2         53  1755    1873
  186                MZ    @ @,MAPVAL              MAPVAL = ABS(MAPVAL)             7  1736  Y N22 Y73           53  2522    1873
  187                W                             PRINT OUT CURRENT LINE           1  1743  2                   53
  188                CS    299                     CLEAR THE PRINT AREA             4  1744  / 299               53   299
  189                SBR   X3,200                  POINT X3 TO PRINT AREA           7  1748  H 099 200           53   099     200
  190         *
  191         * EACH LINE ALTERNATES BETWEEN 'SKIP' AND 'TAKE'.
  192         *
  193         TEST   BCE   DOSKIP,NEXTDO,0     IF 'SKIP' THEN DO SKIP               8  1755  B Y45 Y71 0         54  1845    1871
  194         *
  195         * DO 'TAKE': TAKE MAPVAL NUMBER OF LETTERS FROM THE GETTYSBURG
  196         *            ADDRESS AND APPEND THEM TO THE CURRENT PRINT LINE.
  197         *
1                          LINCOLN'S BIRTHDAY PROGRAM                                                     PAGE    3
0 SEQ PG LIN  LABEL  OP    OPERANDS                                            SFX CT  LOCN  INSTRUCTION TYPE  CARD A-ADDR  B-ADDR

  198         DOTAKE BCE   NEXTCH,0&X2,        DON'T TAKE ANY BLANKS                8  1763  B Y15 0!0           54  1815     000+2
  199                BCE   NEXTCH,0&X2,,       NOR COMMAS                           8  1771  B Y15 0!0 ,         54  1815     000+2
  200                BCE   NEXTCH,0&X2,.       NOR PERIODS                          8  1779  B Y15 0!0 .         54  1815     000+2
  201         *
  202                MN    0&X2,0&X3           APPEND LETTER TO PRINT LINE          7  1787  D 0!0 0?0           54   000+2   000+3
  203                MZ    0&X2,0&X3                                                7  1794  Y 0!0 0?0           55   000+2   000+3
  204                S     @1@,MAPVAL          MAPVAL = MAPVAL - 1                  7  1801  S N23 Y73           55  2523    1873
  205                SBR   X3,1&X3             POINT X3 TO NEXT PRINT POSITION      7  1808  H 099 0?1           55   099     001+3
  206         *
  207         NEXTCH SBR   X2,1&X2             POINT X2 TO NEXT GETTYSBURG CHAR     7  1815  H 094 0!1           55   094     001+2
  208                C     &00,MAPVAL          IF MAPVAL > 0                        7  1822  C N25 Y73           55  2525    1873
  209                BH    DOTAKE                  THEN TAKE SOME MORE CHARS        5  1829  B X63 U             56  1763
  210                MCW   SKIP,NEXTDO             ELSE NEXT DO 'SKIP'              7  1834  M Y69 Y71           56  1869    1871
  211                B     LOOP                                                     4  1841  B X02               56  1702
  212         *
  213         * DO 'SKIP': SKIP MAPVAL NUMBER OF BLANKS IN THE PRINT LINE.
  214         *
  215         DOSKIP A     MAPVAL,X3           X3 = X3 & MAPVAL                     7  1845  A Y73 099           56  1873     099
  216                MCW   TAKE,NEXTDO         NEXT DO 'TAKE'                       7  1852  M Y70 Y71           56  1870    1871
  217                B     LOOP                                                     4  1859  B X02               56  1702
  218         *
  219         * DONE WITH ALL PRINT MAP VALUES.  PRINT THE FINAL LINE AND QUIT.
  220         *
  221         DONE   W                                                              1  1863  2                   56
  222         FINIS  H     FINIS                                                    4  1864  . Y64               57  1864
  223                H                                                              1  1868  .                   57
  224         *
  225         SKIP   DCW   0                   'SKIP' CODE                          1  1869                      57
  226         TAKE   DCW   1                   'TAKE' CODE                          1  1870                      57
  227         NEXTDO DCW   0                   WHAT TO DO NEXT IN THE LINE          1  1871                      57
  228         MAPVAL DCW   00                  PRINT MAP VALUE                      2  1873                      57
  229         *
  230         * THE PRINT MAP.  A NEGATIVE NUMBER DENOTES THE START OF A NEW
  231         * LINE, AND ITS ABSOLUTE VALUE BECOMES THE INITIAL 'SKIP' VALUE.
  232         * EACH LINE'S MAP VALUES ALTERNATE BETWEEN 'SKIP' AND 'TAKE'
  233         * VALUES.  THE FINAL ZERO DENOTES THE END OF THE PRINT MAP.
  234         * MAP VALUES MUST EACH BE TWO DIGITS IN LENGTH.
  235         *
  236         MAP    DCW   -43                                                      2  1875                      57
  237                DCW   17                                                       2  1877                      58
  238                DCW   -34                                                      2  1879                      58
  239                DCW   28                                                       2  1881                      58
  240                DCW   -31                                                      2  1883                      58
  241                DCW   33                                                       2  1885                      58
  242                DCW   -29                                                      2  1887                      58
  243                DCW   37                                                       2  1889                      58
  244                DCW   -28                                                      2  1891                      59
  245                DCW   39                                                       2  1893                      59
  246                DCW   -27                                                      2  1895                      59
  247                DCW   12                                                       2  1897                      59
1                          LINCOLN'S BIRTHDAY PROGRAM                                                     PAGE    4
0 SEQ PG LIN  LABEL  OP    OPERANDS                                            SFX CT  LOCN  INSTRUCTION TYPE  CARD A-ADDR  B-ADDR

  248                DCW   06                                                       2  1899                      59
  249                DCW   23                                                       2  1901                      59
  250                DCW   -26                                                      2  1903                      59
  251                DCW   10                                                       2  1905                      60
  252                DCW   10                                                       2  1907                      60
  253                DCW   23                                                       2  1909                      60
  254                DCW   -26                                                      2  1911                      60
  255                DCW   08                                                       2  1913                      60
  256                DCW   17                                                       2  1915                      60
  257                DCW   18                                                       2  1917                      60
  258                DCW   -26                                                      2  1919                      61
  259                DCW   07                                                       2  1921                      61
  260                DCW   21                                                       2  1923                      61
  261                DCW   16                                                       2  1925                      61
  262                DCW   -25                                                      2  1927                      61
  263                DCW   09                                                       2  1929                      61
  264                DCW   20                                                       2  1931                      61
  265                DCW   10                                                       2  1933                      62
  266                DCW   01                                                       2  1935                      62
  267                DCW   06                                                       2  1937                      62
  268                DCW   -25                                                      2  1939                      62
  269                DCW   09                                                       2  1941                      62
  270                DCW   21                                                       2  1943                      62
  271                DCW   10                                                       2  1945                      62
  272                DCW   01                                                       2  1947                      63
  273                DCW   05                                                       2  1949                      63
  274                DCW   -24                                                      2  1951                      63
  275                DCW   10                                                       2  1953                      63
  276                DCW   26                                                       2  1955                      63
  277                DCW   03                                                       2  1957                      63
  278                DCW   04                                                       2  1959                      63
  279                DCW   05                                                       2  1961                      64
  280                DCW   -22                                                      2  1963                      64
  281                DCW   13                                                       2  1965                      64
  282                DCW   33                                                       2  1967                      64
  283                DCW   04                                                       2  1969                      64
  284                DCW   -21                                                      2  1971                      64
  285                DCW   04                                                       2  1973                      64
  286                DCW   02                                                       2  1975                      65
  287                DCW   08                                                       2  1977                      65
  288                DCW   08                                                       2  1979                      65
  289                DCW   04                                                       2  1981                      65
  290                DCW   22                                                       2  1983                      65
  291                DCW   03                                                       2  1985                      65
  292                DCW   -20                                                      2  1987                      65
  293                DCW   03                                                       2  1989                      66
  294                DCW   05                                                       2  1991                      66
  295                DCW   06                                                       2  1993                      66
  296                DCW   05                                                       2  1995                      66
  297                DCW   10                                                       2  1997                      66
1                          LINCOLN'S BIRTHDAY PROGRAM                                                     PAGE    5
0 SEQ PG LIN  LABEL  OP    OPERANDS                                            SFX CT  LOCN  INSTRUCTION TYPE  CARD A-ADDR  B-ADDR

  298                DCW   20                                                       2  1999                      66
  299                DCW   04                                                       2  2001                      66
  300                DCW   -17                                                      2  2003                      67
  301                DCW   04                                                       2  2005                      67
  302                DCW   08                                                       2  2007                      67
  303                DCW   05                                                       2  2009                      67
  304                DCW   04                                                       2  2011                      67
  305                DCW   05                                                       2  2013                      67
  306                DCW   06                                                       2  2015                      67
  307                DCW   01                                                       2  2017                      68
  308                DCW   07                                                       2  2019                      68
  309                DCW   09                                                       2  2021                      68
  310                DCW   03                                                       2  2023                      68
  311                DCW   04                                                       2  2025                      68
  312                DCW   -17                                                      2  2027                      68
  313                DCW   03                                                       2  2029                      68
  314                DCW   08                                                       2  2031                      69
  315                DCW   05                                                       2  2033                      69
  316                DCW   04                                                       2  2035                      69
  317                DCW   04                                                       2  2037                      69
  318                DCW   14                                                       2  2039                      69
  319                DCW   05                                                       2  2041                      69
  320                DCW   02                                                       2  2043                      69
  321                DCW   05                                                       2  2045                      70
  322                DCW   02                                                       2  2047                      70
  323                DCW   05                                                       2  2049                      70
  324                DCW   -18                                                      2  2051                      70
  325                DCW   03                                                       2  2053                      70
  326                DCW   07                                                       2  2055                      70
  327                DCW   04                                                       2  2057                      70
  328                DCW   09                                                       2  2059                      71
  329                DCW   02                                                       2  2061                      71
  330                DCW   01                                                       2  2063                      71
  331                DCW   04                                                       2  2065                      71
  332                DCW   01                                                       2  2067                      71
  333                DCW   01                                                       2  2069                      71
  334                DCW   05                                                       2  2071                      71
  335                DCW   01                                                       2  2073                      72
  336                DCW   05                                                       2  2075                      72
  337                DCW   04                                                       2  2077                      72
  338                DCW   03                                                       2  2079                      72
  339                DCW   07                                                       2  2081                      72
  340                DCW   -18                                                      2  2083                      72
  341                DCW   03                                                       2  2085                      72
  342                DCW   07                                                       2  2087                      73
  343                DCW   03                                                       2  2089                      73
  344                DCW   09                                                       2  2091                      73
  345                DCW   01                                                       2  2093                      73
  346                DCW   02                                                       2  2095                      73
  347                DCW   05                                                       2  2097                      73
1                          LINCOLN'S BIRTHDAY PROGRAM                                                     PAGE    6
0 SEQ PG LIN  LABEL  OP    OPERANDS                                            SFX CT  LOCN  INSTRUCTION TYPE  CARD A-ADDR  B-ADDR

  348                DCW   01                                                       2  2099                      73
  349                DCW   01                                                       2  2101                      74
  350                DCW   06                                                       2  2103                      74
  351                DCW   03                                                       2  2105                      74
  352                DCW   03                                                       2  2107                      74
  353                DCW   03                                                       2  2109                      74
  354                DCW   01                                                       2  2111                      74
  355                DCW   09                                                       2  2113                      74
  356                DCW   -18                                                      2  2115                      75
  357                DCW   03                                                       2  2117                      75
  358                DCW   07                                                       2  2119                      75
  359                DCW   02                                                       2  2121                      75
  360                DCW   11                                                       2  2123                      75
  361                DCW   01                                                       2  2125                      75
  362                DCW   02                                                       2  2127                      75
  363                DCW   02                                                       2  2129                      76
  364                DCW   02                                                       2  2131                      76
  365                DCW   01                                                       2  2133                      76
  366                DCW   08                                                       2  2135                      76
  367                DCW   01                                                       2  2137                      76
  368                DCW   01                                                       2  2139                      76
  369                DCW   02                                                       2  2141                      76
  370                DCW   02                                                       2  2143                      77
  371                DCW   02                                                       2  2145                      77
  372                DCW   02                                                       2  2147                      77
  373                DCW   07                                                       2  2149                      77
  374                DCW   -18                                                      2  2151                      77
  375                DCW   03                                                       2  2153                      77
  376                DCW   08                                                       2  2155                      77
  377                DCW   02                                                       2  2157                      78
  378                DCW   26                                                       2  2159                      78
  379                DCW   01                                                       2  2161                      78
  380                DCW   09                                                       2  2163                      78
  381                DCW   06                                                       2  2165                      78
  382                DCW   -19                                                      2  2167                      78
  383                DCW   03                                                       2  2169                      78
  384                DCW   07                                                       2  2171                      79
  385                DCW   03                                                       2  2173                      79
  386                DCW   25                                                       2  2175                      79
  387                DCW   01                                                       2  2177                      79
  388                DCW   10                                                       2  2179                      79
  389                DCW   01                                                       2  2181                      79
  390                DCW   -19                                                      2  2183                      79
  391                DCW   04                                                       2  2185                      80
  392                DCW   06                                                       2  2187                      80
  393                DCW   03                                                       2  2189                      80
  394                DCW   26                                                       2  2191                      80
  395                DCW   01                                                       2  2193                      80
  396                DCW   09                                                       2  2195                      80
  397                DCW   01                                                       2  2197                      80
1                          LINCOLN'S BIRTHDAY PROGRAM                                                     PAGE    7
0 SEQ PG LIN  LABEL  OP    OPERANDS                                            SFX CT  LOCN  INSTRUCTION TYPE  CARD A-ADDR  B-ADDR

  398                DCW   -20                                                      2  2199                      81
  399                DCW   12                                                       2  2201                      81
  400                DCW   25                                                       2  2203                      81
  401                DCW   01                                                       2  2205                      81
  402                DCW   10                                                       2  2207                      81
  403                DCW   01                                                       2  2209                      81
  404                DCW   -21                                                      2  2211                      81
  405                DCW   11                                                       2  2213                      82
  406                DCW   17                                                       2  2215                      82
  407                DCW   03                                                       2  2217                      82
  408                DCW   06                                                       2  2219                      82
  409                DCW   01                                                       2  2221                      82
  410                DCW   09                                                       2  2223                      82
  411                DCW   01                                                       2  2225                      82
  412                DCW   -22                                                      2  2227                      83
  413                DCW   10                                                       2  2229                      83
  414                DCW   15                                                       2  2231                      83
  415                DCW   02                                                       2  2233                      83
  416                DCW   08                                                       2  2235                      83
  417                DCW   01                                                       2  2237                      83
  418                DCW   09                                                       2  2239                      83
  419                DCW   01                                                       2  2241                      84
  420                DCW   -25                                                      2  2243                      84
  421                DCW   07                                                       2  2245                      84
  422                DCW   07                                                       2  2247                      84
  423                DCW   01                                                       2  2249                      84
  424                DCW   04                                                       2  2251                      84
  425                DCW   02                                                       2  2253                      84
  426                DCW   02                                                       2  2255                      85
  427                DCW   01                                                       2  2257                      85
  428                DCW   08                                                       2  2259                      85
  429                DCW   02                                                       2  2261                      85
  430                DCW   07                                                       2  2263                      85
  431                DCW   01                                                       2  2265                      85
  432                DCW   -26                                                      2  2267                      85
  433                DCW   07                                                       2  2269                      86
  434                DCW   06                                                       2  2271                      86
  435                DCW   04                                                       2  2273                      86
  436                DCW   05                                                       2  2275                      86
  437                DCW   09                                                       2  2277                      86
  438                DCW   02                                                       2  2279                      86
  439                DCW   01                                                       2  2281                      86
  440                DCW   05                                                       2  2283                      87
  441                DCW   01                                                       2  2285                      87
  442                DCW   -26                                                      2  2287                      87
  443                DCW   08                                                       2  2289                      87
  444                DCW   05                                                       2  2291                      87
  445                DCW   01                                                       2  2293                      87
  446                DCW   12                                                       2  2295                      87
  447                DCW   01                                                       2  2297                      88
1                          LINCOLN'S BIRTHDAY PROGRAM                                                     PAGE    8
0 SEQ PG LIN  LABEL  OP    OPERANDS                                            SFX CT  LOCN  INSTRUCTION TYPE  CARD A-ADDR  B-ADDR

  448                DCW   06                                                       2  2299                      88
  449                DCW   01                                                       2  2301                      88
  450                DCW   04                                                       2  2303                      88
  451                DCW   01                                                       2  2305                      88
  452                DCW   -26                                                      2  2307                      88
  453                DCW   08                                                       2  2309                      88
  454                DCW   05                                                       2  2311                      89
  455                DCW   01                                                       2  2313                      89
  456                DCW   06                                                       2  2315                      89
  457                DCW   01                                                       2  2317                      89
  458                DCW   02                                                       2  2319                      89
  459                DCW   01                                                       2  2321                      89
  460                DCW   02                                                       2  2323                      89
  461                DCW   02                                                       2  2325                      90
  462                DCW   07                                                       2  2327                      90
  463                DCW   01                                                       2  2329                      90
  464                DCW   01                                                       2  2331                      90
  465                DCW   01                                                       2  2333                      90
  466                DCW   -27                                                      2  2335                      90
  467                DCW   07                                                       2  2337                      90
  468                DCW   05                                                       2  2339                      91
  469                DCW   01                                                       2  2341                      91
  470                DCW   03                                                       2  2343                      91
  471                DCW   17                                                       2  2345                      91
  472                DCW   02                                                       2  2347                      91
  473                DCW   01                                                       2  2349                      91
  474                DCW   -27                                                      2  2351                      91
  475                DCW   05                                                       2  2353                      92
  476                DCW   15                                                       2  2355                      92
  477                DCW   11                                                       2  2357                      92
  478                DCW   04                                                       2  2359                      92
  479                DCW   01                                                       2  2361                      92
  480                DCW   -27                                                      2  2363                      92
  481                DCW   08                                                       2  2365                      92
  482                DCW   26                                                       2  2367                      93
  483                DCW   02                                                       2  2369                      93
  484                DCW   -28                                                      2  2371                      93
  485                DCW   15                                                       2  2373                      93
  486                DCW   17                                                       2  2375                      93
  487                DCW   04                                                       2  2377                      93
  488                DCW   -28                                                      2  2379                      93
  489                DCW   37                                                       2  2381                      94
  490                DCW   -28                                                      2  2383                      94
  491                DCW   36                                                       2  2385                      94
  492                DCW   -28                                                      2  2387                      94
  493                DCW   36                                                       2  2389                      94
  494                DCW   -27                                                      2  2391                      94
  495                DCW   01                                                       2  2393                      94
  496                DCW   01                                                       2  2395                      95
  497                DCW   34                                                       2  2397                      95
1                          LINCOLN'S BIRTHDAY PROGRAM                                                     PAGE    9
0 SEQ PG LIN  LABEL  OP    OPERANDS                                            SFX CT  LOCN  INSTRUCTION TYPE  CARD A-ADDR  B-ADDR

  498                DCW   -26                                                      2  2399                      95
  499                DCW   01                                                       2  2401                      95
  500                DCW   03                                                       2  2403                      95
  501                DCW   33                                                       2  2405                      95
  502                DCW   -25                                                      2  2407                      95
  503                DCW   01                                                       2  2409                      96
  504                DCW   06                                                       2  2411                      96
  505                DCW   30                                                       2  2413                      96
  506                DCW   -25                                                      2  2415                      96
  507                DCW   01                                                       2  2417                      96
  508                DCW   08                                                       2  2419                      96
  509                DCW   27                                                       2  2421                      96
  510                DCW   -24                                                      2  2423                      97
  511                DCW   01                                                       2  2425                      97
  512                DCW   11                                                       2  2427                      97
  513                DCW   21                                                       2  2429                      97
  514                DCW   04                                                       2  2431                      97
  515                DCW   01                                                       2  2433                      97
  516                DCW   -21                                                      2  2435                      97
  517                DCW   04                                                       2  2437                      98
  518                DCW   14                                                       2  2439                      98
  519                DCW   16                                                       2  2441                      98
  520                DCW   07                                                       2  2443                      98
  521                DCW   01                                                       2  2445                      98
  522                DCW   -12                                                      2  2447                      98
  523                DCW   06                                                       2  2449                      98
  524                DCW   26                                                       2  2451                      99
  525                DCW   07                                                       2  2453                      99
  526                DCW   12                                                       2  2455                      99
  527                DCW   01                                                       2  2457                      99
  528                DCW   -10                                                      2  2459                      99
  529                DCW   05                                                       2  2461                      99
  530                DCW   49                                                       2  2463                      99
  531                DCW   01                                                       2  2465                     100
  532                DCW   -06                                                      2  2467                     100
  533                DCW   04                                                       2  2469                     100
  534                DCW   55                                                       2  2471                     100
  535                DCW   01                                                       2  2473                     100
  536                DCW   -03                                                      2  2475                     100
  537                DCW   03                                                       2  2477                     100
  538                DCW   60                                                       2  2479                     101
  539                DCW   01                                                       2  2481                     101
  540                DCW   -40                                                      2  2483                     101
  541                DCW   01                                                       2  2485                     101
  542                DCW   14                                                       2  2487                     101
  543                DCW   01                                                       2  2489                     101
  544                DCW   -36                                                      2  2491                     101
  545                DCW   10                                                       2  2493                     102
  546                DCW   04                                                       2  2495                     102
  547                DCW   10                                                       2  2497                     102
1                          LINCOLN'S BIRTHDAY PROGRAM                                                     PAGE   10
0 SEQ PG LIN  LABEL  OP    OPERANDS                                            SFX CT  LOCN  INSTRUCTION TYPE  CARD A-ADDR  B-ADDR

  548                DCW   -34                                                      2  2499                     102
  549                DCW   28                                                       2  2501                     102
  550                DCW   -36                                                      2  2503                     102
  551                DCW   10                                                       2  2505                     102
  552                DCW   05                                                       2  2507                     103
  553                DCW   09                                                       2  2509                     103
  554                DCW   -40                                                      2  2511                     103
  555                DCW   01                                                       2  2513                     103
  556                DCW   14                                                       2  2515                     103
  557                DCW   01                                                       2  2517                     103
  558                DCW   00                                                       2  2519                     103
  559         *
                     DCW   @00@                                                     2  2521              LIT    104
                     DCW   @ @                                                      1  2522              LIT    104
                     DCW   @1@                                                      1  2523              LIT    104
                     DCW   &00                                                      2  2525              LIT    104
  560                END   START                                                             / W88 080               1688
1                                                                                                         PAGE   11
0SYMBOL   ADDRESS    SYMBOL   ADDRESS    SYMBOL   ADDRESS    SYMBOL   ADDRESS    SYMBOL   ADDRESS    SYMBOL   ADDRESS

 DONE     1863: 0    DOSKIP   1845: 0    DOTAKE   1763: 0    FINIS    1864: 0    GETTYS   0333: 0    LOOP     1702: 0
 MAP      1875: 0    MAPVAL   1873: 0    NEXTCH   1815: 0    NEXTDO   1871: 0    SKIP     1869: 0    START    1688: 0
 TAKE     1870: 0    TEST     1755: 0    X1       0089: 0    X2       0094: 0    X3       0099: 0
